:0400000500000A816C
:020000040000FA
:1000000000040020810A000015070000610A0000BA
:100010001F07000029070000330700000000000050
:10002000000000000000000000000000A50A000021
:100030003D070000000000004707000051070000D6
:100040005B070000650700006F07000079070000EC
:10005000830700008D07000097070000A10700003C
:10006000AB070000B5070000BF070000C90700008C
:10007000D3070000DD070000E7070000F1070000DC
:10008000FB070000050800000F0800001908000029
:10009000230800002D080000370800004108000078
:1000A0004B080000550800005F08000069080000C8
:1000B000730800007D080000870800009108000018
:1000C0009B080000A5080000AF080000B908000068
:1000D000C3080000CD080000D7080000E1080000B8
:1000E000EB080000F5080000FF0800000909000007
:1000F000130900001D090000270900003109000054
:100100003B0900001FB500F003F88DE80F001FBD8C
:1001100000F0ACBC40F6FC7108684FF01022401CA7
:1001200008D00868401C09D00868401C04D0086842
:1001300000F037BA9069F5E79069F9E7704770B554
:100140000B46010B184400F6FF70040B4FF0805073
:100150000022090303692403406943431D1B104621
:1001600000F048FA29462046BDE8704000F042BA47
:10017000F0B54FF6FF734FF4B4751A466E1E11E0DA
:10018000A94201D3344600E00C46091B30F8027B3B
:10019000641E3B441A44F9D19CB204EB134394B25D
:1001A00004EB12420029EBD198B200EB134002EBB2
:1001B000124140EA0140F0BDF34992B00446D1E952
:1001C0000001CDE91001FF224021684600F0F4FB58
:1001D00094E80F008DE80F00684610A902E004C8FB
:1001E00041F8042D8842FAD110216846FFF7C0FF7C
:1001F0001090AA208DF8440000F099F9FFF78AFFCB
:1002000040F6FC7420684FF01025401C0FD0206889
:1002100010226946803000F078F92068401C08D030
:100220002068082210A900F070F900F061F9A869AF
:10023000EEE7A869F5E74FF080500369406940F6A2
:10024000FC71434308684FF01022401C06D0086838
:1002500000F58050834203D2092070479069F7E788
:100260000868401C04D00868401C03D00020704778
:100270009069F9E70420704770B504460068C34DE3
:10028000072876D2DFE800F033041929631E250021
:10029000D4E9026564682946304600F062F92A46CE
:1002A0002146304600F031F9AA002146304600F0E0
:1002B00057FB002800D0032070BD00F009FC4FF46C
:1002C000805007E0201D00F040F90028F4D100F034
:1002D000FFFB60682860002070BD241D94E80700C3
:1002E000920000F03DFB0028F6D00E2070BDFFF715
:1002F000A2FF0028FAD1D4E901034FF0805100EBAE
:10030000830208694D69684382420ED840F6F8704E
:1003100005684FF010226D1C09D0056805EB8305B8
:100320000B6949694B439D4203D9092070BD55694A
:10033000F4E70168491C03D00068401C02D003E0C8
:100340005069FAE70F2070BD2046FFF735FFFFF731
:1003500072FF0028F7D1201D00F0F7F80028F2D135
:1003600060680028F0D100F0E2F8FFF7D3FE00F05B
:10037000BFF8072070BD10B50C46182802D0012028
:10038000086010BD2068FFF777FF206010BD41684E
:10039000054609B1012700E0002740F6F8742068FF
:1003A0004FF01026401C2BD02068AA68920000F065
:1003B000D7FA38B3A86881002068401C27D020688D
:1003C000FFF7BDFED7B12068401C22D026684FF051
:1003D0008050AC686D68016942695143A9420DD9EA
:1003E000016940694143A14208D92146304600F0E5
:1003F000B8F822462946304600F087F800F078F831
:100400007069D2E700F093F8FFF784FEF6E77069B1
:10041000D6E77669DBE740F6FC7420684FF01026DB
:10042000401C23D02068401C0CD02068401C1FD0EA
:100430002568206805F18005401C1BD027683879A5
:10044000AA2819D040F6F8700168491C42D001680A
:10045000491C45D00168491C3ED001680968491C07
:100460003ED00168491C39D000683EE0B069DAE747
:10047000B569DEE7B769E2E710212846FFF778FEA5
:100480003968814222D12068401C05D0D4F8001080
:1004900001F18002C03107E0B169F9E730B108CA63
:1004A00051F8040D984201D1012000E000208A4259
:1004B000F4D158B1286810B1042803D0FEE72846CB
:1004C000FFF765FF3149686808600EE0FFF722FE1C
:1004D00000F00EF87169BBE77169BFE7706904E06D
:1004E0004FF480500168491C01D000F0CBFAFEE7C0
:1004F000BFF34F8F26480168264A01F4E06111439B
:100500000160BFF34F8F00BFFDE72DE9F0411746B3
:100510000D460646002406E03046296800F054F8EF
:10052000641C2D1D361DBC42F6D3BDE8F08140F69B
:10053000FC700168491C04D0D0F800004FF48051D1
:10054000FDE54FF010208069F8E74FF080510A690F
:10055000496900684A43824201D810207047002050
:10056000704770B50C4605464FF4806608E0284693
:1005700000F017F8B44205D3A4F5806405F5805562
:10058000002CF4D170BD0000F40A0000000000202F
:100590000CED00E00400FA05144801680029FCD0C5
:1005A0007047134A0221116010490B68002BFCD0E0
:1005B0000F4B1B1D186008680028FCD0002010603D
:1005C00008680028FCD07047094B10B501221A605A
:1005D000064A1468002CFCD0016010680028FCD08A
:1005E0000020186010680028FCD010BD00E4014015
:1005F00004E5014070B50C46054600F073F810B9EB
:1006000000F07EF828B121462846BDE8704000F091
:1006100007B821462846BDE8704000F037B8000012
:100620007FB5002200920192029203920A0B000B06
:100630006946012302440AE0440900F01F0651F80C
:10064000245003FA06F6354341F82450401C8242F8
:10065000F2D80D490868009A10430860081D016827
:10066000019A1143016000F03DF800280AD00649C4
:1006700010310868029A10430860091D0868039A3F
:10068000104308607FBD00000006004030B50F4CED
:10069000002200BF04EB0213D3F800582DB9D3F8A1
:1006A000045815B9D3F808581DB1521C082AF1D3C3
:1006B00030BD082AFCD204EB0212C2F80008C3F8CD
:1006C00004180220C3F8080830BD000000E0014013
:1006D0004FF08050D0F83001082801D0002070473A
:1006E000012070474FF08050D0F83011062905D016
:1006F000D0F83001401C01D0002070470120704725
:100700004FF08050D0F830010A2801D00020704707
:100710000120704708208F490968095808471020B0
:100720008C4909680958084714208A4909680958FA
:100730000847182087490968095808473020854923
:100740000968095808473820824909680958084744
:100750003C20804909680958084740207D490968BC
:100760000958084744207B49096809580847482028
:1007700078490968095808474C207649096809589A
:10078000084750207349096809580847542071499F
:1007900009680958084758206E49096809580847E8
:1007A0005C206C4909680958084760206949096854
:1007B00009580847642067490968095808476820AC
:1007C00064490968095808476C2062490968095852
:1007D000084770205F4909680958084774205D4937
:1007E00009680958084778205A490968095808478C
:1007F0007C205849096809580847802055490968EC
:10080000095808478420534909680958084788202F
:1008100050490968095808478C204E490968095809
:10082000084790204B4909680958084794204949CE
:10083000096809580847982046490968095808472F
:100840009C204449096809580847A0204149096883
:1008500009580847A4203F49096809580847A820B3
:100860003C49096809580847AC203A4909680958C1
:100870000847B0203749096809580847B420354966
:10088000096809580847B8203249096809580847D3
:10089000BC203049096809580847C0202D4909681B
:1008A00009580847C4202B49096809580847C82037
:1008B0002849096809580847CC2026490968095879
:1008C0000847D0202349096809580847D4202149FE
:1008D000096809580847D8201E4909680958084777
:1008E000DC201C49096809580847E02019490968B3
:1008F00009580847E4201749096809580847E820BB
:100900001449096809580847EC2012490968095830
:100910000847F0200F49096809580847F4200D4995
:10092000096809580847F8200A490968095808471A
:10093000FC2008490968095808475FF48070054998
:10094000096809580847000003480449024A034B54
:100950007047000000000020000B0000000B0000AA
:1009600040EA010310B59B070FD1042A0DD310C82C
:1009700008C9121F9C42F8D020BA19BA884201D97E
:10098000012010BD4FF0FF3010BD1AB1D30703D0C6
:10099000521C07E0002010BD10F8013B11F8014B7C
:1009A0001B1B07D110F8013B11F8014B1B1B01D198
:1009B000921EF1D1184610BD02F0FF0343EA032254
:1009C00042EA024200F005B87047704770474FF0A6
:1009D00000020429C0F0128010F0030C00F01B800C
:1009E000CCF1040CBCF1020F18BF00F8012BA8BF1A
:1009F00020F8022BA1EB0C0100F00DB85FEAC17CDE
:100A000024BF00F8012B00F8012B48BF00F8012B90
:100A100070474FF0000200B51346944696462039C1
:100A200022BFA0E80C50A0E80C50B1F12001BFF4A7
:100A3000F7AF090728BFA0E80C5048BF0CC05DF80D
:100A400004EB890028BF40F8042B08BF704748BF5B
:100A500020F8022B11F0804F18BF00F8012B7047CF
:100A6000014B1B68DB6818470000002009480A4951
:100A70007047FFF7FBFFFFF745FB00BD20BFFDE719
:100A8000064B1847064A1060016881F308884068E1
:100A900000470000000B0000000B000017040000DE
:100AA000000000201EF0040F0CBFEFF30881EFF3ED
:100AB0000981886902380078182803D100E0000015
:100AC000074A1047074A12682C3212681047000084
:100AD00000B5054B1B68054A9B58984700BD0000B0
:100AE0007703000000000020F00A0000040000006E
:100AF000001000000000000000FFFFFF0090D00386
:02000004000FEB
:1040000000000420258F0F004D8F0F004F8F0F00F1
:10401000518F0F00538F0F00558F0F0000000000CD
:1040200000000000000000000000000001460F003A
:10403000598F0F00000000005B8F0F00D94C0F005C
:10404000994F0F005F8F0F005F8F0F005F8F0F0082
:104050005F8F0F005F8F0F005F8F0F005F8F0F006C
:104060005F8F0F005F8F0F005F8F0F005F8F0F005C
:104070005F8F0F005F8F0F005F8F0F005F8F0F004C
:104080005F8F0F0015790F005F8F0F005F8F0F009C
:10409000D1790F005F8F0F00C94C0F005F8F0F00A9
:1040A0005F8F0F005F8F0F005F8F0F005F8F0F001C
:1040B0005F8F0F005F8F0F00000000000000000006
:1040C0005F8F0F005F8F0F005F8F0F005F8F0F00FC
:1040D0005F8F0F005F8F0F005F8F0F0051910F00F8
:1040E0005F8F0F005F8F0F005F8F0F0000000000D9
:1040F000000000005F8F0F00000000005F8F0F00C6
:1041000000000000000000000000000000000000AF
:10411000000000000000000000000000000000009F
:10412000000000000000000000000000000000008F
:10413000000000000000000000000000000000007F
:10414000000000000000000000000000000000006F
:10415000000000000000000000000000000000005F
:10416000000000000000000000000000000000004F
:10417000000000000000000000000000000000003F
:10418000000000000000000000000000000000002F
:10419000000000000000000000000000000000001F
:1041A000000000000000000000000000000000000F
:1041B00000000000000000000000000000000000FF
:1041C00000000000000000000000000000000000EF
:1041D00000000000000000000000000000000000DF
:1041E00000000000000000000000000000000000CF
:1041F00000000000000000000000000000000000BF
:104200000348044B834202D0034B03B11847704765
:10421000A8820020A8820020000000000548064B6C
:104220001B1AD90F01EBA301491002D0034B03B1B4
:1042300018477047A8820020A882002000000000D4
:1042400010B5064C237843B9FFF7DAFF044B13B1DE
:104250000448AFF300800123237010BDA882002022
:10426000000000001CD60F0008B5054B1BB1054926
:104270000548AFF30080BDE80840FFF7CFBF00BF9F
:1042800000000000AC8200201CD60F00A3F5803A8D
:10429000704700BF174B002B08BF134B9D46FFF71D
:1042A000F5FF00218B460F461348144A121A00F0FE
:1042B00039F80E4B002B00D098470D4B002B00D047
:1042C00098470020002104000D000D48002802D06E
:1042D0000C4800F00BF900F073F82000290000F002
:1042E000F1FA00F011F800BF000008000000000023
:1042F0000000000000000420A882002014CC002050
:10430000ED440F00F9440F0008B50021044600F009
:104310008DF8034B1B6803B19847204600F040F925
:10432000C4820020830730B546D08418844604E058
:1043300003F8011B9D0704D09C46A4456346F7D1B2
:1043400030BD013A0244A2EB0C02032A29D9CCB2B7
:1043500004EB04240F2A04EB04442FD9A2F1100C1F
:104360002CF00F0C03F11005AC44C3E90044C3E981
:10437000024410336345F8D112F00C0F02F00F0E17
:1043800018D02EF0030C9C44AEF104051A4642F8F6
:10439000044B6245FBD125F0030404330EF0030205
:1043A0002344002ACCD0C9B21A4403F8011B93421B
:1043B000FBD130BD7246F4E70346C6E79646E0E718
:1043C00070B50F4B0F4DAB42A3EB050607D0B610EF
:1043D000002455F8043B01349847A642F9D808F068
:1043E000D7FF094D094B5E1BAB424FEAA60606D02C
:1043F000002455F8043B01349847A642F9D870BD13
:104400009C8200209C8200209C820020A4820020AC
:10441000704700BF704700BF024B13B1024800F065
:1044200065B8704700000000F9440F002DE9F04F17
:104430002C4B2D4F83B082461868CDF804A08B46D4
:10444000FFF7E6FF3E68AEB14FF000094FF00108FC
:104450007468651E0ED4013406EB8404BBF1000FB2
:104460000FD0D4F800315B450BD0013D6A1CA4F19C
:104470000404F6D11B4B186803B0BDE8F04FFFF7FA
:10448000C9BF73682268013BAB420CBF7560C4F8BA
:10449000009072B1D6F88811D6F804A008FA05F396
:1044A0000B420CD1904773683A68534513D1B2421E
:1044B00011D1013D6B1CA4F10404CFD1DAE7D6F889
:1044C0008C01D4F88010034209D101989047736899
:1044D0003A685345EBD0002ACCD01646B8E70846D8
:1044E0009047E0E700800020CC82002000230146B6
:1044F0001A46184600F014B838B5074D074C2C1B67
:10450000A41005D0013C55F8043D9847002CF9D182
:10451000BDE8384008F042BFA8820020A4820020F5
:104520002DE9F8431B4D0646286898460F469146EC
:10453000FFF76EFF184B1C681CB3286865681F2DB9
:1045400022DC4EB96B1C0235636044F82570FFF71E
:1045500061FF0020BDE8F88304EB85010123C1F869
:104560008890D4F88821AB401A43022EC4F88821E1
:10457000C1F80881E6D1D4F88C211A43C4F88C2103
:10458000E0E7064C1C60D8E7FFF744FF4FF0FF3030
:10459000E0E700BF00800020CC820020D082002015
:1045A000FEE700BF20B50D4610B101232B6020BDF2
:1045B0000968F1B1104881420DD0431A3B2B14D841
:1045C00000F13C03A1EB000E1A461EF803C003F8ED
:1045D00001C99042F8D1002207483C2103F088FF2E
:1045E000064A002310802B6020BD3C2208F0BAFE52
:1045F000F1E70E23DAE700BF847F0020807F0020F0
:10460000074A6FF002039E4502D1EFF3098101E0F2
:10461000EFF308818869A0F102000078104700BF1D
:10462000A5450F0070B3F8B50022174E04463C2193
:10463000164803F05DFFB6F800E0864520D1134D23
:10464000A44605F130072C460FCCBC420CF1100CEF
:1046500005F110054CF8100C4CF80C1C4CF8082C0B
:104660004CF8043CEFD107CD0EF1010ECCF8000060
:10467000CCF80410CCF80820A6F800E00020F8BD23
:104680000B20F8BD0E207047807F0020847F002023
:104690000B292ED938B5044600896318411D04EB57
:1046A0004101581A1546C2B2012A20D999421ED892
:1046B000154808F057FE2388522B21D1AB071AD199
:1046C0002046002330F8084F4FF6FE7C4FF4405E42
:1046D00007E030F8022F624514D0BEF80C1091426A
:1046E00010D09C4203F10103F3D10B2038BD092007
:1046F00038BD0920704762884CF668639A42DFD063
:104700000F2038BD002038BD6084002008B500228D
:1047100003F0EEFE034B1B88834214BF0B200020E6
:1047200008BD00BF6084002038B50D4D29684B1CC2
:1047300010D004464FF480520A4808F0DBFD30B137
:104740004CB9084928684FF4806200F0C5FC4FF06E
:10475000FF332B6038BD286800F09EFCF1E700BFF6
:10476000048000206C8400202DE9F843DFF86C9071
:1047700020F47F680D46D9F8001028F00F08414555
:104780000446164609D11448C4F30B0432462946A0
:104790002044BDE8F84308F0E5BD4A1C0ED00E48A1
:1047A0004FF480521F4608F0A5FD38B17FB90A4981
:1047B000D9F800004FF4806200F08EFC4FF4805274
:1047C00041460548C9F8008008F0CCFDDBE7D9F880
:1047D000000000F061FCEAE76C8400200480002007
:1047E000BFF34F8F0549064BCA6802F4E0621343DA
:1047F000CB60BFF34F8F00BFFDE700BF00ED00E0CF
:104800000400FA054BDF704710DF704711DF704777
:1048100013DF704718DF704760DF704769DF70474C
:1048200061DF704708B54FF0E023D3F8F03DDB07B8
:1048300000D500BEFFF7D4FF70B51D4D8EB03426F5
:1048400000240DF1020101A8ADF80260ADF80440AA
:10485000FFF7E6FF70B9BDF80430102B15D0112B0F
:1048600001A804D108202C7000F00EFB01A801F073
:1048700025FDE6E70528E4D101A80194FFF7C2FF72
:1048800048B10528DCD10EB070BD012307202B7084
:1048900000F0FAFAEAE7019802F0B8FE019B093B42
:1048A000022BCDD8034A52F8230005F037FEC7E7A4
:1048B0006D940020A8D30F00014B1878704700BFFB
:1048C0006E9400202DE98048BF4B40F6021287B05D
:1048D000C3F8402500F042FA00F000FE002000F08E
:1048E000D3FA00F0C9FE002840F050814FF0804319
:1048F000DFF800A3D3F81C65B12E0CBF0122002203
:104900008AF8002052D0A82E50D0B04F00253D701C
:10491000D3F800244E2E02F0010800F09A81572EA1
:1049200000F09F81DFF8D092A94AD9F800100968F9
:10493000914200F085816D2E00F0AF81122000F0D1
:10494000F9F93D7804468346002D40F0AF811220EE
:1049500000F0F0F9002840F08D8100F0010038707F
:1049600000F0EAFC4FF4405CD9F80010DCF80430A9
:1049700088B3BBF1000F2ED1DFF860E20A68724500
:1049800000F05281934A934200F00E814FF480531D
:10499000D3F80022904B9A4200F08581B8F1000FC5
:1049A00040F03A8144464FF490532DE04FF080435D
:1049B000864FD3F80024DFF840920025C3F81C5539
:1049C000012402F001083C7000F0B6FC4FF44053A3
:1049D000D9F800105B687F4A934200F091804FF451
:1049E0008053D3F800227C4B9A4200F00C8114B91A
:1049F000002840F00D814FF440535A68754B9A429D
:104A000000F0DB804FF490531968734A734B914266
:104A100018BF0023D9F80020136014B9002840F013
:104A20009D803B78002B76D0082000F02DFA9AF874
:104A30000030002B00F0FA8002AC01234FF4742008
:104A40008AF80030FFF7E4FE654B66491B68009367
:104A50006846FFF7D9FE644991F81623EC23520902
:104A60001341DB0708D5614B9A68002A00F0FE80ED
:104A70001A6842F480021A605D4B01930C220021F7
:104A80002046FFF74FFC40F20113019A02932146A2
:104A90004020FFF7C3FE0C2200212046FFF742FC16
:104AA0009DF80830019A43F001032146A0208DF8BB
:104AB0000830FFF7B3FE0C2200212046FFF732FC3E
:104AC00001251723019AADF80A30214623208DF8DD
:104AD0000850FFF7A3FE0C2200212046FFF722FC1E
:104AE0000623019A8DF80850214620208DF80A509F
:104AF000ADF80C30FFF792FE01A8FFF78DFE10E035
:104B00004FF440539B68D3F80022334B9A427FF412
:104B10006EAF01246FE7022000F0B6F9284604F0DA
:104B20001BFB4FF440532B4A5968387891420ABF17
:104B30009B684FF4905303F500731A68264B9A4212
:104B400003D0572E01D04E2E58D1012240F6B83155
:104B500000F0DCFC3B7823B3FFF758FE00F048F987
:104B600000F0EAFB08B9FFF73BFE00F085FD0028E6
:104B7000F9D14FF44052174B52689A427ED0D9F87F
:104B8000003000221A6000F043FDECE7052000F041
:104B90007BF900F087FD00F0AFFD062000F074F90E
:104BA000A4E604F02FFBD9E7DCF80830D3F80022A4
:104BB000094B9A427FF41BAF04464FF440539B6865
:104BC00003F5007320E700BF00A000406E940020B2
:104BD000D51A5A00DBE5B1517CB0EE877E67E54E11
:104BE000C8D30F0025480F0000E100E0B49A002070
:104BF000008000206C9400200880002000221146D4
:104C000000F084FCA6E7D9F800302A4A1A6008E7C9
:104C1000B8F1000F3FF4EFAE274B284A28480A604E
:104C200043F00103984701200024E4E602ACCDE9FB
:104C300003330593204602230293FFF7EBFDFCE6C6
:104C4000B8F1000F3FF477AE6D2EC3F81C5585D038
:104C500004E0DFF87090C3F81C5501250124A34639
:104C600075E6DFF86090C3F81C55F7E74FF4800352
:104C70000B6001E7132000F05DF86EE69AF8003053
:104C800013B1FFF7C3FD7AE7022102A8CDE90213B1
:104C9000CDE90433FFF7BEFDF3E74FF08043002278
:104CA000C3F81C255AE7C1F800E0BAE60025012048
:104CB00053E600BF7E67E54EC0D30F00D51A5A00F9
:104CC0000048E801088000200021024A084603F05D
:104CD00019BB00BF39480F001248134B026819680E
:104CE0000132B2FBF1F301FB1323B3EB510F88BF89
:104CF000CB1A82B04FEA510C026003EB83010B4ADE
:104D00000B48C3EB01130021B3FBFCF30380C2F893
:104D10001011D2F81031019301990123936002B070
:104D2000704700BF709600206496002000C00140CC
:104D3000689600201F288ABF064B4FF0A04300F062
:104D40001F00D3F8103523FA00F0C04300F0010033
:104D5000704700BF00030050704700BF38B54FF0E8
:104D600080424FF0A0411B4B1B4C01200025D0601E
:104D70000343C2F818559060C1F848474FF4C85033
:104D8000C1F84C479847FFF7E7FF144A1E21082057
:104D900003F090FAD0B903F029F91149114B124AE6
:104DA000E02081F823001B68A2FB03239B09013B41
:104DB000B3F1807F00D338BD4FF0E022002453616F
:104DC000072381F823009461136138BD03F042FB8F
:104DD000E1E700BFD0D30F000C0003007094002067
:104DE00000ED00E00C800020D34D6210704700BF42
:104DF0004FF0E02038B5214A214C4FF0804C002381
:104E0000036101214FF480304FF40035C4F8805025
:104E1000C2F84803C2F8080351604FF0A040916007
:104E2000CCF80C10022103F5E0720133202B40F87E
:104E30002210F8D1134BC3F80017C3F80417C3F8B6
:104E40000817C3F80C17C3F81017C3F81417C3F8E2
:104E50001817C3F81C17C3F82017C3F82417C3F892
:104E60002817C3F82C17C3F83017C3F83417C3F842
:104E70003817C3F83C17FFF7B9FF38BD00100140E1
:104E800000E100E000030050264A1168082840D8DD
:104E9000DFE800F0050F053F3F191D2C3500224BC0
:104EA0004FF4967018604FF48013994218BF136046
:104EB00070471D4B40F6B83018604FF4805399424C
:104EC00018BF13607047184B64221A60704701F0D6
:104ED000103323F08053144810B4994240F6B8348C
:104EE000046018BF13605DF8044B70470E4B40F62A
:104EF000B83018601023994218BF136070470A4BEE
:104F00004FF4967018604FF01013994218BF136059
:104F1000704701F0103323F08053994218BF13609B
:104F2000704700BF60960020649600200F4B1A78EF
:104F3000D2B902780E494FF0804CC2F34002CCF84F
:104F40008025027802F00102CCF878250A68D207A1
:104F500006D40122E02081F80003C1F880210A6014
:104F6000012204481A707047034870478096002059
:104F700000E100E00000AD0B0C00AD0B014B02683E
:104F80001A607047749600204FF080434FF46072AF
:104F9000C3F80423704700BF10B54FF0804386B0BC
:104FA000D3F80443620703D5D3F80821002A62D15D
:104FB000A30605D54FF08043D3F81421002A4FD122
:104FC000600605D54FF08043D3F81821002A3BD165
:104FD000210604D54FF08043D3F81C214ABBE205DB
:104FE00004D54FF08043D3F82021B2B9A30512D5E0
:104FF0004FF08043D3F824216AB10022C3F8242162
:10500000D3F82421214B0592059A1B68022006B093
:10501000BDE81040184706B010BD0022C3F820219B
:105020001A4AD3F82031049301201368049A984750
:10503000DCE70020C3F81C01144AD3F81C310393A9
:105040001368039A9847CAE70022C3F81821104A48
:10505000D3F81831029301201368029A9847B7E7F2
:105060000020C3F814010A4AD3F8143101931368DD
:10507000019A9847A4E70022C3F80821054AD3F80B
:10508000083100931368009A984791E774960020BE
:10509000789600207C9600204FF080531A69B0FB70
:1050A000F2F302FB130373B9084A0223C2F8043572
:1050B000C2F80805D2F80034DB07FBD5002304480A
:1050C000C2F8043570470348704700BF00E0014054
:1050D0000000AD0B0A00AD0B10B50E4C0123C4F857
:1050E00004358AB1A1F1040CA0EB010E00215CF89B
:1050F000040FD4F80034DB07FBD54EF80C00BFF3E7
:105100005F8F01318A42F2D1024B0022C3F804259D
:1051100010BD00BF00E0014010B44FF08053D3F841
:105120003021082A10D0424AD2F8883043F4700364
:10513000C2F88830BFF34F8FBFF36F8F3D4B3E4AAD
:105140001A605DF8044B70474FF080410020C1F8B1
:105150000C013A4AC1F81001C1F83805D3F804042B
:10516000C2F82005D3F80804C2F82405D3F80C04CB
:10517000C2F82805D3F81004C2F82C05D3F814049B
:10518000C2F83005D3F81804C2F83405D3F81C046B
:10519000C2F84005D3F82004C2F84405D3F824042B
:1051A000C2F84805D3F82804C2F84C05D3F82C04FB
:1051B000C2F85005D3F83004C2F85405D3F83404CB
:1051C000C2F86005D3F83804C2F86405D3F83C048B
:1051D000C2F86805D3F84004C2F86C05D3F834016E
:1051E000D3F84444C2F8704550B14FF08043D3F82F
:1051F0000024D20744BF6FF00102C3F8002492E7F5
:105200000F48104CC0F88C4602F54052FB20C2F803
:105210001805D1F8E42ED3F858420B48134664F32E
:1052200003034FF40072C1F8E43EC0F84026DCE707
:1052300000ED00E00C8000200090D00300C0004092
:1052400000500040488103000090024013DF704787
:1052500018DF7047084B93F800C0BCF1010F1046EF
:1052600001D030B97047012904BF02221A7000280A
:10527000F8D003F0EFB800BFC596002008B5FFF7DF
:105280001BFB60B112481C2102F006FBE0B911497A
:105290000F4800231C2202F0BFFA88B908BD4FF462
:1052A0007F20FFF7F9FE07220A494FF47F20FFF71E
:1052B00013FF094B1A78012A04BF02221A7008BD95
:1052C000BDE8084003F0C6B803F0C4F8DFE700BF4C
:1052D000C896002084960020C596002000B5134B88
:1052E0001B7883B02BB9124B1B7853B103B05DF818
:1052F00004FB05F09BFC0028F8D10D4B1B78002B1C
:10530000F4D101A800F068FAFFF7D6FA40B101F035
:105310000BFA40B9074B03221A7003B05DF804FB87
:1053200000F058FCF5E703F095F8F3E7C496002089
:10533000A0960020C596002030B54FF44053184A7F
:10534000596891420ABF9D684FF480542C4683B03F
:1053500001A818BF254600F03FFA2368013306D0A4
:10536000019B1A88012A09D0002003B030BD6B6868
:105370000133F9D0019B1A88012AF5D1588830B938
:105380000346C01AB0FA80F0400903B030BD9968F6
:105390000022204603F0ACF8019B5B88F1E700BFD8
:1053A000DBE5B15184B02DE9F04182B008AC84E86E
:1053B0000F009DF82040BDF8228001A80F46164638
:1053C0001D4600F009FA062C19D8DFE804F0250480
:1053D00036505A691D003F4B0C99A3F80280BA1948
:1053E0002A449A60A5221A80FF229A803A4A99613B
:1053F0000121C3E903765D611170FFF73FFF02B041
:10540000BDE8F04104B07047334B04221A7002B07B
:10541000BDE8F04104B070472F492E4B01220A70BD
:10542000FF21A3F802809D601A809980FFF726FF74
:1054300002B0BDE8F04104B07047019A254B1188D5
:10544000A5293ED050889268198058809A602249D8
:1054500000220120FF24C3E903229C805A610870C6
:10546000FFF70CFF02B0BDE8F04104B07047019BAC
:105470009A681968174B9A60AA229A801960164A8E
:10548000B6E7144B019A0021996092889A80FF2117
:105490001960FFF7F3FE02B0BDE8F04104B07047B9
:1054A000FFF70AFA50B101F03FF978B90A4B03222D
:1054B0001A7002B0BDE8F04104B0704700F08AFBFA
:1054C000F3E70021FF2299601A60C0E702F0C2FFF3
:1054D000ECE700BF84960020C596002000B585B09B
:1054E000084A01920023CDE9023302F00FF930B9E6
:1054F00005494FF47F2301A84B6002F075F905B010
:105500005DF804FB55520F00C8960020F8B5374BE4
:1055100004460D46002A45D0D8B901221A7001F080
:1055200067FA064698B9002D46D100F01DFB0646E5
:105530002F4F304C304DD4F8003413BB02F046FFEF
:1055400007F0A0FC80B93B78023B022BF3D8304631
:10555000F8BD00221A7001F04BFA06460028F6D179
:1055600001F02EF80646E3E705F0D8FB002006F030
:105570003DFD3B78023B022BE9D9D4F80034002BE7
:10558000DCD0C4F80056C4F80456C4F80856C4F871
:105590000C56C4F81056C4F81456C4F81856C4F87B
:1055A0001C56CBE71A7001F023FA06460028CED12C
:1055B000002CD5D1002DB8D00024104B104A114832
:1055C0001C70214602F0D4FD21464FF400434FF4F5
:1055D000FA70E5FB03014FF47A72002307F0B0FC88
:1055E00022460146084802F0D5FD9EE7C4960020F9
:1055F000C5960020000001403546526EA09600205E
:10560000DD520F00E8D30F00A49600200000000038
:1056100010B54FF4405116484C68164B4FF0FF320E
:10562000844284B0C3F88020C3F8802115D09FED58
:105630000E7B002368468DED007BCDE90233FFF73A
:1056400007FE4FF4805410B14FF000531C60204609
:1056500004B0BDE8104000F0E3B88C682046FFF7C6
:10566000F5FDF0E7AFF30080060000000010000039
:10567000DBE5B15100E100E000B583B001A800F026
:10568000ABF8019B1A88A52A08D09888A0F1AA0037
:10569000B0FA80F0400903B05DF804FB012003B0CC
:1056A0005DF804FB10B501F0D3FB80B1104B11483D
:1056B00043F00103984701F02FFBA8B901F0C8FBA4
:1056C00078B901F077FB044638B9204610BD01F0E7
:1056D00097FB04460028E9D1F7E702F0BBFE20461D
:1056E00010BD02F0B7FEECE702F0B4FEE6E700BF43
:1056F000E0D30F0000A8610070B582B001A800F0EF
:105700006BF8019B23491A88A52A3ED058889B68CC
:105710000A8048808B60204E204C214D0023FF20C2
:105720000122C1E9033388804B613270FFF7A6FD87
:10573000D4F80034C3B902F049FE07F0A3FB30B936
:105740003378023B022BF3D8002002B070BD05F085
:10575000E5FA002006F04AFC3378023B022BF3D92D
:10576000D4F80034002BE6D0C4F80056C4F8045630
:10577000C4F80856C4F80C56C4F81056C4F81456A9
:10578000C4F81856C4F81C56D5E70022FF238A60D7
:105790000B60C0E784960020C59600200000014001
:1057A0003546526E10B582B0044601A800F014F8D8
:1057B000019B1A8822805A8862809A68A2609A881F
:1057C000A280DA68E2601A6922615A6962619B69A3
:1057D000A36102B010BD00BF014B0360704700BF62
:1057E00000F00F00F0B40346186880F3088858688A
:1057F000FF2464B2EFF30585002D01D1A6460047D2
:105800002546064621273FBAF0B40024002500268D
:105810000027F0B4F92040B2004700BFF0BC704749
:10582000FFF7E0BF00B583B000230DF1020101A82E
:10583000ADF80230019303F04FFB019B40B123B15F
:10584000184603F06BFB002832D103B05DF804FB6F
:1058500019780029F4D01A4A92F830000328EFD0C2
:10586000106838B1D06830B3906930B3506A0028FE
:10587000E6D1032000EB400002EB800C42F8201040
:1058800092F83010BDF802000131C9B2800804332B
:1058900082F8301001380021CCE90103094A08469A
:1058A00002F030FD019B002BCFD00028CDD0C7E700
:1058B00002F0D0FDC9E70120DCE70220DAE700BFF3
:1058C000D0960020D5580F0001B97047084602F065
:1058D000C1BD00BF9E4B10B501229E4C1A7094F8BA
:1058E0003030002B00F033812368F3B15A1E042AB4
:1058F00019D8DFE802F00C18A78B030001F0CEF9ED
:1059000001F0EEF9BDE810400620FFF7BDBA91485E
:1059100001F092F901F06EF9002840F003810520B2
:10592000FFF7B2FA2368002B76D1E368DBB15A1E89
:10593000042A16D801A151F822F000BF8B5A0F009B
:1059400063590F0051590F00575A0F00FD580F00AF
:1059500063698148236101F083F8002840F0E58005
:10596000E368002B7DD1A369E3B15A1E042A16D83F
:1059700001A151F822F000BFDD5A0F009F590F001E
:105980008D590F00A35A0F00FD580F00236A73486A
:10599000E36101F065F8002840F0D080A369002B96
:1059A00040F08680636A002B99D05A1E042A16D8CC
:1059B00001A151F822F000BF035B0F00DF590F0077
:1059C000CD590F00F35A0F00FD580F00E36A6448E9
:1059D000A36201F045F8002840F0B380636A002B11
:1059E0003FF47DAF94F83030E06A013B0022DBB237
:1059F0000438C4E9092284F83030E26203F08EFAF8
:105A000000283FF46CAF02F025FD68E7514801F033
:105A100085F82368002B88D094F83030A068013BCB
:105A2000DBB2002284F83030A26000230022043868
:105A3000C4E9002303F072FA00283FF476AF02F0C5
:105A400009FD72E7A3684348636001F009F8002884
:105A500065D1236867E7404801F060F8E368002BF0
:105A600081D094F830306069013B0022DBB2043809
:105A7000C4E9032284F83030626103F04FFA002851
:105A80003FF471AF02F0E6FC6DE7334801F0D4F863
:105A900001F0B0F800284BD10520FFF7F5F9E368D5
:105AA0005FE72E4801F03AF8A369002B3FF47AAF84
:105AB00094F83030206A013BDBB2002284F83030A9
:105AC0002262002300220438C4E9062303F026FAE8
:105AD00000283FF467AF02F0BDFC63E71F4801F008
:105AE000ABF801F087F830BB0520FFF7CDF9A369CB
:105AF00055E71B4801F012F8636A002B3FF4EFAE44
:105B000070E7174801F098F801F074F8E0B9052043
:105B1000FFF7BAF9636A002B3FF4E1AE62E702F0E7
:105B200099FC96E702F096FCF9E602F093FC17E781
:105B300002F090FCB0E702F08DFCD5E702F08AFCA1
:105B40002CE702F087FC49E702F084FCDFE710BD98
:105B5000A0960020D0960020DC960020E896002039
:105B6000F4960020000000009FED157B08B5164B51
:105B70001648002283ED007B83ED067BC3E90322F8
:105B8000C3E9092283F830209A605A611A62DA6206
:105B900000F060FF03F02EF928B90D4803F012F968
:105BA00040B9002008BD02F055FC094803F00AF98D
:105BB0000028F6D002F04EFC002008BDAFF30080B4
:105BC0000000000000000000D0960020C9580F001F
:105BD00025580F0010B5344C23685BB9E36803BB4C
:105BE000A369002B32D1636A002B46D1BDE8104077
:105BF00003F046B994F83030A068013BDBB20022D4
:105C000084F83030A260002300220438C4E9002365
:105C100003F084F90028E1D002F01CFCE368002BBB
:105C2000DED094F830306069013B0022DBB20438EA
:105C3000C4E9032284F83030626103F06FF9002870
:105C4000CED002F007FCA369002BCCD094F8303002
:105C5000206A013BDBB2002284F83030226200234C
:105C600000220438C4E9062303F058F90028BAD00A
:105C700002F0F0FB636A002BB8D094F83030E06A91
:105C8000013B0022DBB20438C4E9092284F8303039
:105C9000E26203F043F90028A8D002F0DBFBBDE884
:105CA000104003F0EDB800BFD09600206CDF7047C5
:105CB0006DDF70476EDF70476FDF704772DF7047D0
:105CC00073DF704774DF704776DF704777DF7047A8
:105CD0007ADF70477CDF70477FDF704786DF704771
:105CE0008FDF704790DF7047AFDF7047B0DF7047DE
:105CF000B1DF7047B2DF7047B5DF704764DF7047D0
:105D000066DF704702F0A6BB032810B509D004284F
:105D100006D1E1B1184A10884FF6FF73984210D1AE
:105D200010BD0C2998BF154B154894BF5A5C06222C
:105D3000012101F041FA0028F2D0BDE8104002F044
:105D400089BB1321FFF7C0FF0028F6D110BD104614
:105D5000144602F037FC58B90A4B1B689C42DFD14D
:105D600007480122032101F027FA0028E5D110BDE0
:105D700002F070FBF0E700BF18800020A8D40F00ED
:105D8000949700203C970020F0B5604C93B010220F
:105D900000212046FEF7C6FA5D4A5E49127821606E
:105DA00000230C93CDE90F3301260D931193282383
:105DB0008DF830600E93002A61D1062302AD06AE45
:105DC0008DF8063041F23053ADF80830524B28467A
:105DD0009B798DF80A3032460DF10701FFF78EFFEF
:105DE000A3881C2B0DD820684FF48172C25218442E
:105DF000023001220DF1060107F0B4FAA388033343
:105E0000A380464807F0BCFAA388C5B25A191D2AD8
:105E10000FDC206841496A1CC254184409234370AE
:105E20002A46023007F09EFAA38802331D44ABB223
:105E3000A3800D2B0CD8226840F21165D018D552E2
:105E400031460230102207F08DFAA3881233A38066
:105E50002E4933480CAAFFF731FF40BB304C0422D7
:105E600021780120FFF732FFF0B920780121FFF7F8
:105E700027FF90B92B4B01221A7013B0F0BD2A4BAB
:105E80000FCB02AD85E80F0028481022294607F005
:105E900031FA78B9062306AE92E702F0DBFA214B1D
:105EA00001221A7013B0F0BD02F0D4FADDE702F05F
:105EB000D1FAD3E71D4BDF1F1D4B314618461F603B
:105EC000FFF7F8FEE0B9194BD7F8070059689A6850
:105ED000DB6806AE0FC697E803000A901548ADF8D8
:105EE0002C100B0C06AE012200218DF82E3006601E
:105EF000FFF7E2FE38B903238DF8443004235FE74F
:105F000002F0A8FADFE702F0A5FAF4E724970020F0
:105F1000409700200497002094970020ECD30F00B6
:105F20001080002080970020B8D40F004B970020ED
:105F30003897002034970020F0B50B7889B00C46D4
:105F40000546092B0ED8DFE803F01A22373B4961DA
:105F50000572780FA648A749A74AA3880B80012499
:105F60000470138009B0F0BDA44B196801F0B2F8B9
:105F70000028F7D009B0BDE8F04002F06BBA4A68DB
:105F80009F4BA0491278012008701A70EAE74B680D
:105F90009C4A1B780221012B1170E3D100F02AFEEC
:105FA0000C2896BF984B06221A5C0221284601F065
:105FB00003F90028D6D0DDE7924B03221A70D1E70F
:105FC00000F06CFE0C2896BF904B06221A5C042150
:105FD000284601F0F1F80028C4D0CBE78C4B8D4A5D
:105FE00018884FF6FF7301219842117000F08280EB
:105FF0001321FFF769FE002879D100F071FE002817
:10600000B0D009B0BDE8F04000F078BE804B814AC6
:1060100018884FF6FF7301219842117079D013212F
:10602000FFF752FE0028ECD002F014FAE9E77049BD
:10603000704A00230B70138094E70520FEF724FFBD
:10604000704B1978022972D003291ED0012989D1F9
:10605000207A6B4B66681C7804AA002302920C28F5
:106060004FF003020493CDE905338DF810400793F8
:106070000393019200F09D80284601F09DF80028CE
:106080003FF470AF02F0E6F96CE7207A830740F046
:106090008880614E0190314602F064FA00287AD17E
:1060A000019A6168306807F05DF9019802F0C4FA5E
:1060B000002870D101A9304602F0CEFA00286AD13A
:1060C000019B3268069204219B0804A80491059361
:1060D00000F024FD0746002840F0AF80474A237AAD
:1060E00014684E4930680860234413603AE702F0B0
:1060F000B1F982E74A4C2378002B3FF47EAF494B3D
:106100001878FFF7DFFD002840F09480002323700B
:1061100073E7434C2378002B3FF473AF414B18785F
:10612000FFF7D0FD002860D10023237069E7237AB0
:1061300013F0030215D06668591C0020032AF0549E
:10614000C2F10407C9B207D06668032F705403D1A7
:1061500002336668DBB2F054C2F103021144CBB2E1
:106160002372626801219B0804A8CDE905320491DD
:1061700000F062FD00283FF4F5AE0638062896BF11
:10618000294B06221A5C0221284601F015F8002846
:106190003FF4E8AE76E70C2825D8244B1A5C03219F
:1061A0006AE70A46284601F007F800283FF4DAAE0D
:1061B000E0E63368059373680693B368079301A814
:1061C00000F04EFC00283FF4CDAE0638062896BFFE
:1061D000174B06221A5C0121284600F0EDFF00282B
:1061E0003FF4C0AE4EE70622D9E702F033F99BE751
:1061F000819700208A970020889700208C970020A4
:106200009097002091970020A8D40F0090D40F0001
:106210001880002082970020849700203C9700205F
:106220008097002010800020A0D40F00A8D40F0079
:10623000A0D40F0002F00EF968E7092819D11A4B13
:106240001A4A1868217A127801441960002A3FF42A
:1062500089AE174C2388013B9BB22380002B7FF42F
:1062600081AE284600F06EFFD0B9124B1B88238008
:1062700078E6306802F0A6F920B90C2FB3D80E4B9F
:10628000DA5D8CE70C2896BF0B4A0622125C0321CC
:10629000284600F091FF0028EFD002F0DBF8ECE791
:1062A00002F0D8F8E1E700BF8C970020819700202A
:1062B000889700208A970020A8D40F0030B50446A4
:1062C000B1B08C48214600F0ADFF2388013B552B2F
:1062D00061D8DFE813F0E300600060006000600058
:1062E00060006000600060006000600060006000AE
:1062F00060006000EC00F30060001D014B016000D5
:10630000600060006000600062006000600060008B
:106310006000600060008C0060009500600060001C
:10632000A20060006000600060006000600060002B
:10633000600060006000600060006000600060005D
:10634000600060006000600060006000600060004D
:10635000600060006000600060006000600060003D
:10636000600060006000600060006000600060002D
:10637000600060006000BD006200600060005600C8
:10638000D700E1885C4B172928BF17211888FFF731
:10639000B3FC00283CD131B030BD574C20884FF6BB
:1063A000FF75A84200F00281544B1B78002B00F0CF
:1063B000ED80534901230822FFF79AFC40BB0246B7
:1063C000014602232088FFF793FC08BB20882A4659
:1063D0000C21FFF789FCA0F54053023B012BDAD9D1
:1063E0000828D8D01128D6D00028D4D010E0424AAE
:1063F00000231088ADF8403010A9FFF771FCCAE700
:106400003D4B002218881146FFF76CFC0028C2D0D3
:1064100031B0BDE8304002F01DB8237A012BBAD16B
:10642000384A394913680020013B08701360002B7B
:1064300040F0B780CDE91033CDE91233052110AA21
:106440008DF84010009314930FCAFEF7ABFFA2E73C
:10645000A379002B9FD0A27B043A022A9BD826491D
:10646000022B18BF012308888DF840304FF4C17209
:1064700010A9ADF84420FFF739FC00288BD001F0BB
:10648000E9FF88E7A379002B85D11B4B13211888DE
:10649000FFF71AFC00283FF47EAFB9E7164B002146
:1064A0001888FFF72DFC00283FF475AFB0E71249BC
:1064B000154BA088088000221A706CE7114A0E4C18
:1064C000802032211160ADF824000123208809AA20
:1064D00010A9FFF70FFC002860D10C4B1B7823B9E3
:1064E000094B1B780BB9FFF74FFC4FF6FF73238066
:1064F00051E700BF949700201880002040970020AB
:106500007897002014800020809700208297002038
:10651000274C94E803000B0CD4F80F208DF82230A0
:106520000790D4F81330D4F80700ADF82010D4F851
:106530000B100DF10C0C1834ACE80F000FCC0DF162
:10654000240CACE80F0094E807001A4B03AC8CE86D
:10655000070015941888184A09AC10AB85211494CB
:10656000FFF7BAFB00283FF416AF88E71049228AEC
:106570004B8DA0889A4214BF002118310F4A002386
:10658000FFF7ACFB00283FF406AF41E71A46194677
:10659000FFF7AEFB00283FF4FEAE39E701F05AFFEB
:1065A0009BE731B0BDE83040FFF7EEBB08202FE796
:1065B0004497002018800020C49700204B970020AB
:1065C000F0B54A494A4A4B4895B000230B70137006
:1065D00000F040FA01F0ACFF044610B1204615B0BF
:1065E000F0BD4548FEF71EF8002869D1434B012253
:1065F0001A7004AD112342488DF8043006F0C0FE35
:106600003F4982B201A8FFF765FB002855D1082257
:1066100000212846FDF786FE3A4A4FF0C873284607
:10662000CDE90423FFF754FB002843D10C220021BD
:1066300001A8FDF777FE0821334A344BADF804106A
:106640003348029201A9039300F040FC78BB314E1D
:10665000314F002140222846FDF764FE304606F007
:106660008FFEADF810003846059606F089FE2B4ED9
:10667000ADF818003046079706F082FE1123024657
:106680002846ADF83020ADF84C300D9600F006FFEE
:10669000234A244B12784FF4E66010211880997039
:1066A000002A9BD1FFF770FB204615B0F0BD01F02A
:1066B000D1FECCE701F0CEFEB8E701F0CBFEA6E7B5
:1066C00004AD2846FFF7F4FA60B99DF8113028466A
:1066D00001338DF81130FFF7E9FA00288AD001F074
:1066E000B9FE87E701F0B6FEEFE700BF8297002012
:1066F00091970020095D0F004497002040970020EB
:10670000ECD30F0008001800395F0F00055D0F0083
:1067100094970020F4D30F0000D40F0010D40F0082
:1067200080970020C497002010B5114B114A18889B
:106730004FF6FF7301219842117009D01321FFF722
:10674000C3FA08B9002010BD01F084FE002010BD7E
:10675000094C2378002BF5D0084B1878FFF7B2FAD4
:1067600018B900232370002010BD01F073FEF8E774
:106770001880002082970020809700201080002041
:1067800018DF7047F0B50C4685B00321CDE9001045
:10679000054696086846CDE902461F46FFF7F0FF1A
:1067A00090B1B4F5805F06D93B463A46E11BE81B41
:1067B000FFF7E8FF40B901236846CDE90154009393
:1067C0000396FFF7DDFF08B105B0F0BD032368466F
:1067D000CDE90035CDE90246FFF7D2FF05B0F0BDA7
:1067E0000129F8B516461D461BD003290C4601D0D9
:1067F00096B9F8BD114F3B78022BF9D1104B5B686D
:106800009847104B3C701B68002BF1D02A4631464C
:1068100020469847002EECD03046BDE8F84001F005
:1068200019BE064B1B78052BE2D1064B1B68002BCB
:10683000DED02A46314604209847D9E74498002004
:10684000D0970020DC97002030B589B003AC14222B
:1068500000212046FDF766FD094B0A4A1B88D268D5
:10686000ADF80E300025079B8DF80C500692009372
:1068700094E80F00FEF796FD284609B030BD00BF32
:10688000EC9700203098002010B50C4B0C4A99680A
:106890001088DA685B6888B0CDE904314FF0030CEA
:1068A0008DF80CC0ADF80E00069203AB0FCB079C21
:1068B0000094FEF777FD002008B010BD309800204E
:1068C000EC97002000B5114B89B01A88ADF80E2066
:1068D0004FF4405301218DF80C1059680C4A914235
:1068E00008BF9A680B4B18BF4FF480520092D3E94F
:1068F00002125B680692CDE9043103AB0FCBFEF7C1
:1069000051FD002009B05DF804FB00BFEC970020AA
:10691000DBE5B1513098002010B5002488B0CDE9F6
:106920000344CDE9054404228DF80C2003AB0FCBC2
:106930000094FEF737FD08B010BD00BF2DE9F04709
:10694000244A254D254E166002232B70FDF7B4FF17
:10695000234B1968A8BB4FF44059DFF89080D9F851
:10696000043004460139661C43454FEA11374FEAAB
:1069700006300BD0FEF790FBA7420FD0D9F80430B9
:106980003446661C43454FEA0630F3D1D9F8080077
:1069900000EB0430FEF780FBA742EFD12B78022BEF
:1069A00001D0BDE8F0870F4B5B6898470E4B1B6822
:1069B00003202870002BF4D00022BDE8F0471146D8
:1069C0001847304600F068FF0028EAD0BDE8F047DD
:1069D00001F040BDE097002044980020E49700209B
:1069E00040980020D0970020DC970020DBE5B151D3
:1069F00010B584B01049114A114B0191002411497E
:106A0000147001A8CDE902441C8000F0EDFE78B9B5
:106A10004FF440530C4A5968914208BF9C68094999
:106A20000A4B18BF4FF4805400224C601A600124B6
:106A3000074B1C7004B010BDE1670F00EE970020FB
:106A4000EC970020E4970020DBE5B1514898002046
:106A500044980020014B1860704700BFDC9700206D
:106A600038B54368234C0FCB84E80F0023785907CF
:106A700001D59A0730D1626895072DD1A1688807A2
:106A80002AD1E06810F0030426D10A4410441A4ABF
:106A9000B1F5204F106024D84FF440521749556883
:106AA0008D420ABF92684FF46922C2F56A22904271
:106AB00017D8DA0713D49B0719D41149114B124A7E
:106AC0001A60124A5A60124A99601378012B0BD14E
:106AD000FFF734FF204638BD0624204638BD0D4957
:106AE000ECE70C24204638BD0824204638BD0A496E
:106AF000E4E700BF3098002040980020DBE5B1516A
:106B000049680F00D09700203D690F0019690F00F8
:106B100044980020C5680F0089680F00002849D0FC
:106B20002DE9F0418468A3073BD12C4D2B78052B30
:106B300002D00820BDE8F081294E42683368DFF8B2
:106B4000B08003EB82039700D8F8002093422BD843
:106B5000FDF7B2FE3368D8B94FF44052214851686E
:106B600081420CBF90684FF4805018443A4600238D
:106B70002146FDF7F9FD2B78052B25D03268D8F892
:106B8000003017449F42376016D00920BDE8F081DD
:106B9000154A214610683A4600F03EFE0028EDD026
:106BA000C8E71020BDE8F0814FF0FF3333600C20C0
:106BB000BDE8F0810E207047FDF77EFE08B1002091
:106BC000B8E7FDF7B1FDFAE7084B1B68002BD5D0FD
:106BD0002246002104209847D0E700BF44980020B7
:106BE00048980020DBE5B151E0970020DC970020B9
:106BF0004098002070B50B4B1C681CB90A4D2B78CF
:106C0000042B01D0082070BD084B094E1A7831784A
:106C10000848FDF73DFD10B905232B7070BD347099
:106C200070BD00BF48980020449800203098002094
:106C3000EE970020F097002070B5144A1378032BCC
:106C400018D0042B1CD1124B1C68CCB9114D4368D1
:106C500095F800C09E000CEB8303402B13D881688D
:106C60000D483246604406F07DFB2B7833442B7090
:106C7000204670BD04231370054B1C68002CE5D022
:106C80000824204670BD0924204670BD4498002089
:106C900048980020EE970020F097002010B50C4C8B
:106CA0002378052B01D0082010BD0A4B0A4A1B6827
:106CB00011689942F7D1094A126806235068237077
:106CC000FDF724FD0028EFD10723237010BD00BF7E
:106CD000449800204098002048980020E097002029
:106CE000044B1B78072B01D008207047024B9B6890
:106CF000184700BF44980020D097002010B588B0F6
:106D000006238DF80C3003AB0FCB079C0094FEF7E5
:106D100049FB08B010BD00BFF0B58DB005A8FEF767
:106D200041FD089CCCB10B9E04F58053B34230D991
:106D30004FF440531E4D9B6872199C4205EA520560
:106D400019D905F5805301276846CDE90073CDE9CF
:106D50000237FFF715FD18B1044620460DB0F0BD0F
:106D60004FF480536846CDE9013300970397FFF74E
:106D700007FD0028F0D16900A4EB45022B4601F580
:106D8000805106EB4500FFF7FDFC044620460DB0A0
:106D9000F0BD01224FF48053A4086846CDE90234C7
:106DA000CDE90026FFF7ECFC044620460DB0F0BD0F
:106DB00000F0FFFF00B58DB005A8FEF7F3FC0998C1
:106DC00010B90DB05DF804FB089B43B94FF4405374
:106DD0000A4A596891420FD04FF4805201E00B9A51
:106DE0001A448308002101A8CDE901120393FFF79B
:106DF000C7FC0DB05DF804FB9A68F2E7DBE5B15122
:106E000010B58CB005A8FEF7CDFC099808B90CB0F8
:106E100010BD089B43B94FF440530C4A5968914246
:106E200011D04FF4805201E00B9A1A4483084FF4BA
:106E30007421032401A8CDE90141CDE90323FFF723
:106E40009FFC0CB010BD9A68F0E700BFDBE5B151C4
:106E500010B58CB005A8FEF7A5FC0898B0B10B9C46
:106E600000F58053A34213D94FF440539B689842D6
:106E70001BD80F4BE21803EA52035900A0EB430260
:106E800001F5805104EB4300FFF77CFC0CB010BD12
:106E9000820803214FF4805301A8CDE90113CDE905
:106EA0000342FFF76DFC0CB010BD0E200CB010BDFE
:106EB00000F0FFFFA8DF7047AADF7047ADDF704723
:106EC000AEDF7047B0DF704762DF70472DE9F047F3
:106ED00094B0002800F0F4800E46002900F0F08005
:106EE0004B68002B00F0EC804FF6FF72774B02806E
:106EF00041F23052029205460FCB04AC84E80F00F9
:106F000020460DF10A01FFF7DFFF044618B12046C5
:106F100014B0BDE8F0872A1D02A90120FFF7CAFFBF
:106F200004460028F3D19DF80A30AB7101461C22BB
:106F30000DA8FDF7F7F99DF834300E9443F00403E3
:106F40008DF8343001AFAB798DF80E30214641F227
:106F5000325303223846CDE91044CDE91244ADF84E
:106F60000C30FDF7DFF99DF8063023F01F0343F0E6
:106F70000303214614224FF4885808A88DF80630E0
:106F8000ADF804800DF10C09FDF7CCF94FF0140AAF
:106F9000A8880C9405F1080308AA0DA9CDE9097485
:106FA000CDF82090ADF82CA0FFF786FF044600280E
:106FB000ADD101461C220DA8FDF7B4F99DF834307F
:106FC0000E9423F0180343F018038DF83430AB7996
:106FD0008DF80E30214641F2315303223846CDE977
:106FE0001044CDE91244ADF80C30FDF79BF99DF843
:106FF0000630ADF8048023F01F0343F0130321464D
:10700000524608A88DF80630FDF78CF91723ADF825
:107010002C30A8880A9405F1100308AA0DA90C9435
:10702000CDE90897FFF748FF044600287FF46FAFCB
:1070300001461C220DA8FDF775F99DF834300E9419
:1070400043F002038DF83430AB798DF80E302146D1
:1070500041F2345303223846CDE91044CDE91244BD
:10706000ADF80C30FDF75EF99DF8063023F01F03F4
:1070700043F00303214652468DF8063008A8112339
:10708000ADF80430FDF74EF902230A93ADF82C3029
:10709000A888CDF8209008AA0DA905F1200309972A
:1070A0000C96FFF709FF044600287FF430AF7368A1
:1070B000AB62B36803B1EB62054B01221A7026E79D
:1070C0000E24204614B0BDE8F08700BFC8D40F00DE
:1070D0005398002078B370B502884FF6FF739A4238
:1070E00086B0044624D0154B1B780BB3144D4FF4D7
:1070F000E2632B800126C5F803100723102200212C
:1071000002A8ADF80630AE70FDF70CF9238AADF891
:1071100008300023ADF80C3020888DF80A600DF19E
:10712000060302A9CDE90435FFF7CAFE06B070BD1B
:10713000082006B070BD0E20704700BF5398002095
:107140004C98002090B330B502884FF6FF739A42F6
:1071500087B0044627D0164B1B7823B3154D112357
:107160002B700B0A6970AB700B0C090EEB70297158
:1071700005231022002102A8ADF80630FDF7D2F851
:10718000218AADF80810012300228DF80A302088EA
:10719000ADF80C200DF1060302A9CDE90435FFF787
:1071A0008FFE07B030BD082007B030BD0E207047FD
:1071B000539800204C98002068B330B504460088EE
:1071C00013464FF6FF72904287B021D0134A1278CF
:1071D000F2B1134D697003211022ADF8061002A818
:1071E00000212A70AB70FDF79DF8218AADF80810D8
:1071F000012300228DF80A302088ADF80C200DF113
:10720000060302A9CDE90435FFF75AFE07B030BDE9
:10721000082007B030BD0E20704700BF53980020F3
:107220004C980020B0B170B50D4688B069B1826A43
:10723000044652B10B88502B4ED00CD8102B06D0E0
:10724000112B02D14FF6FF73038008B070BD8B88FD
:107250000380FAE77047512BF7D18E79022EF4D1D3
:107260000A89038A9A42F0D18B7B043B022BECD92A
:107270009DF816300A69069243F001038DF8163026
:10728000082201F1140301A8002107938DF8106072
:10729000FDF748F86B46A18A208801AACDE9016371
:1072A000FFF70CFE00286ED1BDF800302088DB0708
:1072B0006DD5002304A9ADF81430FFF703FE0028B4
:1072C0006FD1297D4B1E072B00F28B80DFE803F086
:1072D0004B3C3A382F2D2513C98803899942B4D1E4
:1072E0002B8A8DF81830082112358DF8101005956D
:1072F00004A99047A9E76B8A022B5AD9B5F8153033
:10730000A26AADF80830002B14BF062107218DF8C2
:107310000410204601A9904797E70922A36A8DF837
:10732000042001A9204698478FE70522F6E70422AA
:10733000A36A8DF804200DEB02012046984784E7EC
:107340000322EBE70222E9E76A8A01239A428DF8D9
:10735000043036D91535A26A8DF80C30029501A992
:107360002046904771E76B8A0022012B8DF804209C
:107370002FD901221535A36A8DF80C20029501A999
:107380002046984761E7E36A03B19847208840F2B6
:10739000FD1304A9ADF81430FFF794FD00283FF465
:1073A00054AFE36A002B3FF450AF08B0BDE8704023
:1073B0001847032208212046FFF7FEFE0028F0D1DF
:1073C00043E7062202212046FFF7F6FE0028E8D117
:1073D0003BE7062201212046FFF7EEFE0028E0D120
:1073E00033E703222046FFF7E7FE0028D9D12CE738
:1073F000A8DF7047AADF70472DE9F041044690B03E
:1074000016461F460D46002942D01C22002108A81E
:10741000FCF788FF9DF82030ADF8044043F00203EC
:1074200000248DF820302146012303226846CDE94F
:107430000B44CDE90D4409948DF80630FCF772FF3A
:107440009DF802C03B788DF800302CF01F0C7B7843
:107450008DF801304CF0020C2146142202A88DF860
:1074600002C0FCF75FFF0C4BADF812401888169B6A
:10747000CDF80CD002AA08A901ACADF81060ADF8A7
:10748000146006950294FFF7B5FF10B0BDE8F081D7
:10749000084600F0DFFFB8E77498002030B50123FC
:1074A00087B041F60A05354AADF80C5003A90446E9
:1074B00018468DF80E30FFF79BFF0546002830D1A7
:1074C0002288002A30D12289002A3CD1228C002A2D
:1074D00047D1A26B2AB304F13C031478B2F802C07E
:1074E0009088D2888DF81520002164F307016CF391
:1074F0000F214FEA1C2C120A6CF3174160F31F6135
:107500008DF81620000A1E4A009204918DF814008E
:10751000072204A942F65020FFF76EFF002818BF8B
:107520000546284607B030BD164B6168009342F609
:10753000292004F13C03FFF75FFF0028C3D0054674
:10754000284607B030BD104BE168009342F6242076
:1075500004F13C03FFF750FF0028F0D1228C002AF1
:10756000B7D00A4B616A009342F6262004F13C032F
:10757000FFF742FF0028ACD00546E1E774980020F1
:10758000549800206C980020649800205C9800209B
:1075900029DF704728DF704738B51A4D2B7803EB89
:1075A000430305EBC3031A795C69012A13D0032A4C
:1075B00001D00F2038BD144A4FF0805310681B696A
:1075C0009BB2B4FBF3F42044FFF7E4FF0028F1D1B1
:1075D0000123AB7038BD0C499A6808689969DB686B
:1075E000A2EB0032B2F5805F1C4401EB003138BFE2
:1075F000920804EB003028BF4FF48062FFF7C8FF09
:10760000E4E700BF90980020789800202DE9F04131
:107610003B4CA37882B02BB100230228A37018D072
:10762000032802D002B0BDE8F081207800EB4000D2
:1076300004EBC0021046156911799369314C9268C8
:10764000009254F8254010300D22A04702B0BDE84A
:10765000F08123782C4E03EB430104EBC101326827
:107660008F6861780132B7EB023F4FEA4300326026
:1076700043D85A1CD2B2092A184404EBC00584BF6F
:10768000A3F10902D2B20139D5F810C02270C9B2F3
:107690001C4AAB696170284629790097002752F887
:1076A0002C8037603A461030C04700220023C5E9DD
:1076B000022300230422C5E9042363782F71AF61FC
:1076C000002BAFD0A378002BACD1FFF765FF0246AB
:1076D0000028A7D01128A5D0237803EB430304EB9F
:1076E000C3052846AC682E692979AB690094054C1E
:1076F000103054F82640A04794E7002992D0E4E7E0
:10770000909800208098002078980020324A334BCF
:107710003349002010B4334C10600422C3E9042024
:10772000C3E90A20C3E91020C3E916201880987025
:10773000187198609861D860187718621863586259
:1077400083F8340098639864D86383F84C00186514
:107750001866586583F864009866C3E91C20C3E97D
:107760002220C3E92820C3E92E20C3E93420C3E93D
:107770003A209867D86683F87C00C3F88000C3F885
:107780009000C3F8840083F89400C3F89800C3F80D
:10779000A800C3F89C0083F8AC00C3F8B000C3F89D
:1077A000C000C3F8B40083F8C400C3F8C800C3F82D
:1077B000D800C3F8CC0083F8DC00C3F8E000C3F8BD
:1077C000F000C3F8E4002060C1E90000C1E9020054
:1077D0005DF8044B704700BF789800209098002017
:1077E000809800207C980020094A1368042B0CD054
:1077F00010B40B60074C006844F82300591C11605A
:10780000002318465DF8044B70471846704700BFC8
:107810007C9800208098002038B55C180C4314F048
:10782000030429D11B4D95F801E0BEF10A0F26D0C3
:1078300095F800C0F4445FFA8CFCBCF1090F84BFDA
:10784000ACF10A0C5FFA8CFC0CEB4C0C05EBCC0C8D
:10785000CCF8181001218CF8041003C8CCE90223DD
:10786000AB780CF1100C8CE803005BB10EF1010E4B
:1078700085F801E0204638BD1024204638BD042498
:10788000204638BDFFF788FE95F801E0112818BFA3
:107890000446EBE79098002038B5174C94F801C0E7
:1078A000BCF10A0F25D023786344DBB2092B84BFD7
:1078B0000A3BDBB203EB430304EBC3030D46002298
:1078C00003219A61197103C8C3E90252103383E896
:1078D0000300A3782BB110460CF1010C84F801C011
:1078E00038BDFFF759FE112894F801C008BF0020E9
:1078F000F2E7042038BD00BF90980020082910B599
:10790000044602D0002000F0A5FDD4E90030BDE817
:1079100010401847F0B5264A264B002483B0C2F821
:107920004041C2F84441C2F84841C2F84C41C2F853
:107930000041C2F804411B6813B31F49D2F8045533
:107940000A68AD1A1A6825F07F45AA42274609D869
:10795000197CDE69AD1A1444A1B91EB133461A6808
:10796000AA42F5D91549164A0B7812789A4218D0CE
:107970001448154A40F823404FF48011C2F8001112
:1079800003B0F0BDD3E905201F74009201900F4AA7
:107990000821684600F0B6FC0028DED000F05AFD51
:1079A000DBE70132D3B2022B08BF00230B70DFE705
:1079B00000100140949900209099002086990020A1
:1079C000879900208899002000E100E0FD780F00F1
:1079D0002DE9F04F9E4A9F4910789F4A0B78D2F8C4
:1079E00000809E4A9842126889B000F0EF8101330E
:1079F000DBB2022B08BF002318460B70984B53F8DC
:107A0000204008EB040323F07F4C934BC3F800C0E5
:107A1000002A00F0DC820027134639463E46BE4667
:107A200013E0DF68DD69C3F800E00644241A3FB1C3
:107A300008EB060020F07F40C3E90107D961194631
:107A40000127002D00F0C6812B461868A042E8D916
:107A500017B1824A15602A46001B18600123814C29
:107A6000DFF80C822478DFF80CB20294CDE90532FD
:107A7000002006460490E1461546019003904FF021
:107A8000010ACDF81CC041B3D1E90123D1F81CE0B3
:107A9000A2EB090020F07F40584552D80344C1E9C9
:107AA00000368E6081F810A0CE61002D5DD02C686C
:107AB0009C4257D22A4603E0106883425AD90446B2
:107AC0009446D2691F461B1B002AF5D10B60CA6180
:107AD000CCF81C1071460029D6D198F8003098F8DF
:107AE00001209A425DD003EB430098F80220013355
:107AF00008EBC000DBB29A4208BF002388F80030D0
:107B000003798168022B00F08A80032B3BD0012B84
:107B1000E3D10C7C002CE0D1C2684A6003698B6021
:107B20004769CF60806988610298002800F08D80E5
:107B30002246A2EB090020F07F4058454C60A64643
:107B4000ACD9A9EB020222F07F429A4201D29B1AE1
:107B5000A5E7C1E900668E6081F810A0CE6125B16D
:107B60002C680023E31A2B60CD6101230D4601939D
:107B7000714688E7E71B384410600B60CA61CCF897
:107B80001C107146A7E7002DA7D02E74ED69002DBB
:107B9000FBD1012398F80120019398F800309A4214
:107BA000A1D10499DDF81CC0DDE90532002940F0BF
:107BB0000682019900295FD028490D60039909B90F
:107BC00095425DD0002D5FD0274B2848D3F804158F
:107BD0002C680578A1EB0C0222F07F420332002DC5
:107BE00000F0FD8094422CBF0CEB04030CEB02036D
:107BF0001D4823F07F43C0F84035D0F80425521AC1
:107C00005B1A22F07F42033223F07F439A4200F254
:107C10004381144A0023137009B0BDE8F08F95B179
:107C200028462B4603E0DA69184662B113468B42B8
:107C3000F9D1814200F0BC80CB690C68C36113B1FB
:107C40001A6822441A600E7447E7864620E700BF90
:107C5000869900208799002090990020949900200F
:107C60008899002084990020001001408599002007
:107C700098990020FEFF7F00039915460029A1D1A5
:107C8000002BC6D0002D9FD17D4B7E484FF4003293
:107C9000C3F8802002F18042A2F570424FF4803395
:107CA000C2F848330124C2F80833774B546019688E
:107CB0002F231E4600BF00BF00BF00BF00BF00BF94
:107CC00000BF00BF81422FD000BF00BF00BF00BF78
:107CD00000BF00BF00BF00BF00BF00BF00BF00BFAC
:107CE00000BF00BF00BF00BF00BF00BF00BF00BF9C
:107CF00000BF00BF00BF00BF00BF00BF00BF00BF8C
:107D000000BF00BF00BF00BF00BF00BF00BF00BF7B
:107D100000BF00BF00BF00BF00BF00BF00BF00BF6B
:107D200000BF00BF00BF00BF013EC3D19460574AEF
:107D3000156000BF00BF00BF00BF00BF00BF00BF95
:107D400000BF81422FD000BF00BF00BF00BF00BFF7
:107D500000BF00BF00BF00BF00BF00BF00BF00BF2B
:107D600000BF00BF00BF00BF00BF00BF00BF00BF1B
:107D700000BF00BF00BF00BF00BF00BF00BF00BF0B
:107D800000BF00BF00BF00BF00BF00BF00BF00BFFB
:107D900000BF00BF00BF00BF00BF00BF00BF00BFEB
:107DA00000BF00BF00BF013BC3D1394B1D7030E79E
:107DB000039AEB69AB4218BF42F001020392002B19
:107DC00000F0B4801D460123019335E70021C4462D
:107DD0000B4644E62F4B2A461D603B463FE6284DA6
:107DE000284F4FF48036C3F84463C3F804634FF45C
:107DF0000036C5F880612E600125234E1D6036686F
:107E00002F2300BF00BF00BF00BF00BF00BF00BFE7
:107E100000BFBE422FD000BF00BF00BF00BF00BFE9
:107E200000BF00BF00BF00BF00BF00BF00BF00BF5A
:107E300000BF00BF00BF00BF00BF00BF00BF00BF4A
:107E400000BF00BF00BF00BF00BF00BF00BF00BF3A
:107E500000BF00BF00BF00BF00BF00BF00BF00BF2A
:107E600000BF00BF00BF00BF00BF00BF00BF00BF1A
:107E700000BF00BF00BF013BC3D10570B2E600BF29
:107E800000E100E00024F4000C8000209099002024
:107E90008599002094990020D0F804354D4AC0F807
:107EA000403512684C492F2300BF00BF00BF00BF00
:107EB00000BF00BF00BF00BF8A422FD000BF00BF7D
:107EC00000BF00BF00BF00BF00BF00BF00BF00BFBA
:107ED00000BF00BF00BF00BF00BF00BF00BF00BFAA
:107EE00000BF00BF00BF00BF00BF00BF00BF00BF9A
:107EF00000BF00BF00BF00BF00BF00BF00BF00BF8A
:107F000000BF00BF00BF00BF00BF00BF00BF00BF79
:107F100000BF00BF00BF00BF00BF00BF013BC3D117
:107F20002E4B4FF40032C3F8002172E62C4D294A43
:107F3000294F0124AC6015682F2200BF00BF00BF8D
:107F400000BF00BF00BF00BF00BFBD422FD000BFB9
:107F500000BF00BF00BF00BF00BF00BF00BF00BF29
:107F600000BF00BF00BF00BF00BF00BF00BF00BF19
:107F700000BF00BF00BF00BF00BF00BF00BF00BF09
:107F800000BF00BF00BF00BF00BF00BF00BF00BFF9
:107F900000BF00BF00BF00BF00BF00BF00BF00BFE9
:107FA00000BF00BF00BF00BF00BF00BF00BF013A5D
:107FB000C3D102941D460494994601943CE60949B4
:107FC000029808700849CC46C1F80090F1E51146C6
:107FD000012344E50C8000200024F40000E100E0CF
:107FE00000100140849900209099002030B4564B35
:107FF000564A57484FF480314FF400340125C2F8F7
:108000008040C3F84813C3F808135D602F2100684F
:10801000504C8C4600BF00BF00BF00BF00BF00BF78
:1080200000BF00BFA0422FD000BF00BF00BF00BFF5
:1080300000BF00BF00BF00BF00BF00BF00BF00BF48
:1080400000BF00BF00BF00BF00BF00BF00BF00BF38
:1080500000BF00BF00BF00BF00BF00BF00BF00BF28
:1080600000BF00BF00BF00BF00BF00BF00BF00BF18
:1080700000BF00BF00BF00BF00BF00BF00BF00BF08
:1080800000BF00BF00BF00BFBCF1010CC2D19D60AA
:1080900000BF00BF00BF00BF00BF00BF00BF00BFE8
:1080A000A0422FD000BF00BF00BF00BF00BF00BF75
:1080B00000BF00BF00BF00BF00BF00BF00BF00BFC8
:1080C00000BF00BF00BF00BF00BF00BF00BF00BFB8
:1080D00000BF00BF00BF00BF00BF00BF00BF00BFA8
:1080E00000BF00BF00BF00BF00BF00BF00BF00BF98
:1080F00000BF00BF00BF00BF00BF00BF00BF00BF88
:1081000000BF00BF0139C3D1134C144900202070B7
:108110000B2408808C701249124C087012492060A0
:1081200008704FF48014E021C2F8804182F81413E3
:108130001460C3F808050D4C82F81113D3F8043508
:10814000236030BC704700BF0010014000E100E038
:108150000C8000200024F4008599002098990020CC
:1081600087990020949900208699002090990020FA
:10817000074B9B783BB142B138B10368187C10B90A
:1081800059745A617047082070470720704700BF34
:10819000989900202DE9F043264EB37883B0002B48
:1081A0003BD00446002838D004290D4639D943690C
:1081B0009BB3437C0027012B0DF107000CBF8846C1
:1081C0004FF0000891468DF8077000F053F973786E
:1081D000B2789DF80700591CC9B28A4208BF3946D7
:1081E00032788A4221D003EB430306EBC303124AE1
:1081F0009C6001241C71D2F804257170C3E9032529
:10820000C3E9058900F05CF90C4B4FF48012C3F808
:108210000021384603B0BDE8F083082003B0BDE874
:10822000F083072003B0BDE8F08300F049F9042093
:10823000F0E700BF989900200010014000E100E045
:1082400070B51A4CA37882B04BB3054638B3436976
:108250002BB3002606740DF107008DF8076000F0BF
:1082600009F96278A1789DF80700531CDBB29942A6
:1082700008BF33462178994214D002EB4202637062
:1082800004EBC20402232371A56000F019F9084B26
:108290004FF48012C3F80021304602B070BD0820B0
:1082A00002B070BD00F00CF90420F6E798990020A8
:1082B00000E100E0844612F0030014D14B1C10B41E
:1082C000DB000A4C9BB213442260094A1360094A3E
:1082D000094B10701870094A094BA2F800C01980A8
:1082E0005DF8044B70470720704700BFB09A00202C
:1082F000AC9A0020A89A0020A99A0020A69A0020F3
:10830000A49A00202DE9F0432A4E33888B4283B093
:1083100003D2092003B0BDE8F083002507460DF124
:1083200007000C4690468DF8075000F0A3F8224B4A
:1083300022491A78224BB1F800C01978C8B26145B9
:108340003CBF0130C5B2D2B2AA429DF807002BD083
:108350001D781978DFF87090CAB28C4586BF01325B
:10836000D2B20022EDB21A7000F0AAF8D9F80030AB
:1083700043F8358003EBC5034FEAC50807B12CB9B4
:1083800000229A80002003B0BDE8F0830D4B3088B6
:108390001B68394605FB0030224604F0E3FFD9F89C
:1083A000003043449C80EDE700F08AF8042003B0DD
:1083B000BDE8F083A69A0020A99A0020A49A002084
:1083C000A89A0020AC9A0020B09A00202DE9F84F1E
:1083D0001A4C1B4D22782B789A4224D0DFF868A0E3
:1083E000DFF86890174FDFF868B04FF00008227888
:1083F000DAF800103888D9F8006051F8323001EB13
:10840000C20C02FB0060BCF8041098472278BBF84D
:108410000010D3B201339142DBB206D92370237826
:108420002A789A42E3D1BDE8F88F84F80080227858
:108430002B789A42DBD1BDE8F88F00BFA99A0020C3
:10844000A89A0020A69A0020B09A0020AC9A00209A
:10845000A49A002000B585B00021034601AA44F289
:108460000100CDE90213ADF80410FCF7DBF905B00B
:108470005DF804FB70B4EFF3108472B60D4A936894
:10848000ABB9012191600C490C4ED1F880503540B8
:108490001560C1F88060D1F8845055604FF0FF320C
:1084A000C1F88420037004B962B670BC7047012320
:1084B000F8E700BFB49A002000E100E0FC06FFBD31
:1084C000094B9A687AB170B910B4EFF3108172B6A3
:1084D000064A1C6814605C685460986001B962B612
:1084E0005DF8044B70477047B49A002000E100E04B
:1084F0008446CAB11088B1B1614401390CF1FF3C26
:108500001CF8013F40BA80B25840C0F30313434007
:108510001BB283EA03331BB25A0102F4FF525340E9
:10852000614598B2ECD170474FF6FF70E3E700BFAA
:10853000084B09490020082210B4084C9861C3E98F
:108540000012C3E90200C3E9040020705DF8044B87
:10855000704700BFC09A0020DC9A0020BCAD00200C
:108560000020704749B330B4154D6C6800230B6090
:1085700004B3B0F5167F1AD8D5E90302013C6C604C
:108580004FF0010CAC6901300CFA02FCE86044EADF
:108590000C0418462B68AC614FF4177404FB0233CB
:1085A000013202F007022A6130BC0B6070470C20D8
:1085B00030BC7047042030BC70470E20704700BFAD
:1085C000C09A0020F0B51B4CA2685AB365692668B2
:1085D000AF1A07F007073B464FF4177E03E00CF095
:1085E00007039D4220D00EFB0361884203F1010C7A
:1085F000F5D1A16901259D404D40A56100200121D3
:1086000001FA07F72F420CD10B4403F007039940FE
:1086100063682940013A013349B9002AFAD1C4E913
:108620000132F0BD0420F0BDA5691020E7E7C4E9E0
:108630000132F0BDC09A0020064A13691268013B5E
:108640004FF4177103F0070301FB0323C3F858022B
:1086500000207047C09A0020E8B1E1B130B40F4B60
:10866000DC68ACB19D685A69013C0135C3E902542C
:108670001C684FF4177505FB02440132046002F0D8
:108680000702D4F858025A61086030BC00207047D5
:10869000042030BC70470E20704700BFC09A0020F5
:1086A00010B5194ADC28136884B020D0DD2813D017
:1086B000C02823D1B3B115490C689CB11449039368
:1086C0000868029000238DF8043013600B6004AB3F
:1086D00013E90700A04705E00D480068591CDB249A
:1086E000C45411600B4B0C4A1A6004B010BD08480A
:1086F0000068591CC024C4541160F3E70449096898
:108700005C1CC8541460EDE7C0AD0020D8AD00205B
:10871000C8AD00202080002041880F00C02802D171
:10872000014B024A1A6070472080002041880F00E8
:1087300000B583B0DB2301220DF1070100208DF885
:10874000073003F099FC30B1054B064A1A6000204F
:1087500003B05DF804FB042003B05DF804FB00BF28
:108760001C800020E9870F0010B50C4A0C4C1168E2
:10877000236882B0CB5C8DF8073001220DF1070130
:10878000002003F079FC28B1236800200133236026
:1087900002B010BD042002B010BD00BFD4AD002057
:1087A000CCAD002000B583B0C02301220DF107013C
:1087B00000208DF8073003F05FFC50B1074B1B68B9
:1087C0001BB1002003B05DF804FB054B054A1A609D
:1087D000F7E7042003B05DF804FB00BFCCAD002038
:1087E0001C80002069870F0010B5114A114C1268D7
:1087F0002368D35CC02B82B017D0DB2B12D1DD23D2
:1088000001220DF1070100208DF8073003F034FC40
:1088100040B12368084A09491160013300202360F0
:1088200002B010BD042002B010BDDC23E8E700BF99
:10883000D4AD0020CCAD00201C80002069870F0043
:1088400010B4C02885B013D0DB2806D1154B164ACA
:108850001A6005B05DF8044B7047144B14491A6850
:108860000C68511CA054196005B05DF8044B7047AA
:108870000E4B1A68002AECD00E490C68002CE8D088
:108880000B4903920868029000221A608DF80420B8
:1088900004AB0A6013E90700234605B05DF8044BFA
:1088A000184700BF20800020A1860F00C0AD002027
:1088B000C8AD0020D8AD00202DE9F041194CDFF8FB
:1088C0007480194D84B007E003F056FB28B39DF87F
:1088D0000400164B1B689847002003F041FB034639
:1088E000012201A90020D3B1236823B1D8F8007078
:1088F0002E68B742E8D30E4A146884B10D4A126854
:10890000CDE90232022104AB8DF8041013E907000F
:10891000234604B0BDE8F0411847FF20D9E704B072
:10892000BDE8F081C8AD0020C4AD0020208000204B
:10893000D8AD0020C0AD0020014B1860002070476A
:10894000D8AD0020034B1A780AB901221A70002012
:10895000704700BFDCAD0020014B0020187070474D
:10896000DCAD0020002861D02DE9F04F304F3B787E
:10897000012B85B006D0022B0CBF0420082005B0C7
:10898000BDE8F08FDFF8C0B02A4E2B4D2B4CDFF83E
:10899000BCA0DFF8AC80DFF8B89031600023CBF8E2
:1089A000003002232860C4F800A03B700AE0DBF826
:1089B0000010525CDB2A10D09847042832D01128CE
:1089C00030D03168DBF800308B420CD2DBF800107D
:1089D0002A682368515CC029E9D1434504BFC4F823
:1089E00000904B46E8E7C023012201A90020C4F80B
:1089F00000A08DF8043003F03FFB98B1DBF80030A5
:108A00000BB90F4B23600F4B1B6801223A704BB11F
:108A10002868DBF800108DF80420CDE9020101AAD6
:108A200007CA9847002005B0BDE8F08F10207047B6
:108A3000DCAD0020D0AD0020D4AD00201C80002093
:108A400069870F00D8AD0020CCAD0020A5870F00AE
:108A500031870F00064B074A10B41960064C074BCC
:108A600010600020064A20601A605DF8044B7047D1
:108A7000C4AD0020C8AD0020C0AD00202080002083
:108A80001D870F0010B52C4C2378012B0BD0022B27
:108A900003D00BB9002838D010BD02281ED00328FF
:108AA0002BD068B110BD0128F6D1244A244B11689F
:108AB00018680631FFF756FF002837D102232370CC
:108AC000204B2148002241F67F211A60FFF762FB0C
:108AD0000028E1D0BDE81040FFF7BCBC194A13687C
:108AE000052B1FD01549164809680068013313602B
:108AF000BDE810400631FFF735BF144A1368013353
:108B000003F007031360002323700F48FFF798FB5F
:108B100078B90F4B1B68002BBED00E4ABDE8104041
:108B2000107818470B4B01221A70ECE7FFF792FC04
:108B3000C4E7FFF78FFCECE730AE002014AE002056
:108B400018AE0020ECAD0020F0AD00201CAE0020DF
:108B50002CAE0020E9AD00200E4B1A78022A00D07E
:108B6000704710B40C4C2268052A0AD00B490C4BF4
:108B700009681868013222605DF8044B0631FFF77E
:108B8000F1BE084A00200121117018705DF8044BF5
:108B9000FFF778BF30AE0020ECAD002014AE00200F
:108BA00018AE0020E9AD0020F0B585B004AB03E9B4
:108BB00007009DF80400032825D8DFE800F0290EFF
:108BC0000723042802D02046FFF744FC7248052101
:108BD000FFF740FFB8B905B0F0BD704C2378012B0A
:108BE000F9D16F4A6F4B116818680631FFF7BAFE6A
:108BF000002879D102230020237005B0BDE8F040A1
:108C0000FFF740BF032005B0BDE8F040FFF722BCEE
:108C1000039D032D5CD9029C637813F00F023AD0B8
:108C20000E2A55D1042D6ED0227850066BD5110630
:108C300069D5A178D618E3780E441E4416F0FF06D5
:108C400061D1AF1E324639462046FFF751FCE35B47
:108C5000834258D1544F23783A6803F00703D1B2C6
:108C60008B425AD0514B4FF416711868FFF7F2FE41
:108C7000002840F082803B684D48DB00DBB20022D8
:108C80005C420421037042708270C47005B0BDE87C
:108C9000F040FFF767BE2278A078E17813440344E0
:108CA0000B44DBB2A3B943490B68013383EAD20218
:108CB00012F007020CD14048384C0270207802288C
:108CC00006D103F0070310460B602270FFF7DAFEAF
:108CD000364D2C685CB14FF416712046FFF7BAFE92
:108CE00000283FF478AF8EE7FFF7B4FB82E7294610
:108CF0004FF41670FFF736FC00287FF462AF286847
:108D00004FF4167164E7294B4FF416711868FFF79A
:108D1000A1FE00283FF45FAF75E7531C244803F021
:108D20000703DA000270042152423B60C2704670B1
:108D30008670FFF717FE214B012228461A70FFF7B5
:108D40007BFC10BB19494FF41670FFF70BFCB8B150
:108D5000042802D00020FFF77DFB0F480521FFF714
:108D600079FEA8B9164B1B68002B3FF434AF4FF0C7
:108D7000000005B0BDE8F0401847FFF76BFB7AE74D
:108D80000A4B4FF416711868E9E7FFF763FBD9E760
:108D9000FFF760FBE6E700BFE4AD002030AE002047
:108DA00014AE002018AE002020AE002024AE00201B
:108DB000E0AD00201CAE0020E9AD002010AE002088
:108DC00028AE0020094B10B5044609481C60FFF787
:108DD000B3FD20B9002C0CBF0E20002010BDFFF702
:108DE00039FB002C0CBF0E20002010BD28AE002047
:108DF000A98B0F0038B5174C1748184A184D002397
:108E00002360184C036013701748184A2B60012127
:108E10002370174B11600160164A17481970FFF74D
:108E2000A7F9A8B9FFF784FB00B138BDFFF78AFDA9
:108E30000028FAD111494FF41670FFF793FB38B9A7
:108E40000E4B4FF416711868BDE83840FFF702BEAC
:108E5000032038BD14AE0020ECAD002010AE002081
:108E600018AE002030AE00201CAE002020AE002046
:108E7000E9AD0020598B0F00D8D40F0024AE00209C
:108E80001249134A08B500230B601360FFF768FB13
:108E900048B9FFF761FD60B90E48FFF7D1F9042822
:108EA0000ED0002008BDFFF7D5FAFFF755FD0028CA
:108EB000F2D0FFF7CFFA0748FFF7C2F90428F0D144
:108EC0000020FFF7C7FA002008BD00BF2CAE00202D
:108ED00028AE0020F0AD0020C0B130B50D4683B003
:108EE000B1B10D4B19780022019211B9042003B0E1
:108EF00030BD01A904461A70FFF7AEFB019B063B8B
:108F00002B8023680433236003B030BD0E207047EC
:108F10000E2003B030BD00BF10AE00200438FFF7B4
:108F200051BB00BF0649074A074B9B1A03DD043BB0
:108F3000C858D050FBDCFCF7EFF8FBF7ABF90000AA
:108F400028D60F0000800020A8820020FEE7FEE760
:108F5000FEE7FEE7FEE7FEE7FEE7FEE7FEE7FEE7E9
:108F600018DF7047F0B5174887B01646164A0092CA
:108F70000F4607C81D46154B0DF10C0CACE803005D
:108F800093E8030001AC84E8030003A88CF80020F8
:108F900004F0F6F903A90246384604F0E3F9204646
:108FA00004F0EEF921460246304604F0DBF968464B
:108FB00004F0E6F969460246284604F0D3F907B002
:108FC000F0BD00BF30D40F00312E30003CD40F0074
